{
  "_format": "hh-sol-artifact-1",
  "contractName": "MyEpicNft",
  "sourceName": "contracts/MyEpicNft.sol",
  "abi": [
    {
      "inputs": [],
      "stateMutability": "nonpayable",
      "type": "constructor"
    },
    {
      "anonymous": false,
      "inputs": [
        {
          "indexed": true,
          "internalType": "address",
          "name": "owner",
          "type": "address"
        },
        {
          "indexed": true,
          "internalType": "address",
          "name": "approved",
          "type": "address"
        },
        {
          "indexed": true,
          "internalType": "uint256",
          "name": "tokenId",
          "type": "uint256"
        }
      ],
      "name": "Approval",
      "type": "event"
    },
    {
      "anonymous": false,
      "inputs": [
        {
          "indexed": true,
          "internalType": "address",
          "name": "owner",
          "type": "address"
        },
        {
          "indexed": true,
          "internalType": "address",
          "name": "operator",
          "type": "address"
        },
        {
          "indexed": false,
          "internalType": "bool",
          "name": "approved",
          "type": "bool"
        }
      ],
      "name": "ApprovalForAll",
      "type": "event"
    },
    {
      "anonymous": false,
      "inputs": [
        {
          "indexed": false,
          "internalType": "address",
          "name": "sender",
          "type": "address"
        },
        {
          "indexed": false,
          "internalType": "uint256",
          "name": "tokenId",
          "type": "uint256"
        }
      ],
      "name": "NewEpicNFTMinted",
      "type": "event"
    },
    {
      "anonymous": false,
      "inputs": [
        {
          "indexed": true,
          "internalType": "address",
          "name": "from",
          "type": "address"
        },
        {
          "indexed": true,
          "internalType": "address",
          "name": "to",
          "type": "address"
        },
        {
          "indexed": true,
          "internalType": "uint256",
          "name": "tokenId",
          "type": "uint256"
        }
      ],
      "name": "Transfer",
      "type": "event"
    },
    {
      "inputs": [
        {
          "internalType": "address",
          "name": "to",
          "type": "address"
        },
        {
          "internalType": "uint256",
          "name": "tokenId",
          "type": "uint256"
        }
      ],
      "name": "approve",
      "outputs": [],
      "stateMutability": "nonpayable",
      "type": "function"
    },
    {
      "inputs": [
        {
          "internalType": "address",
          "name": "owner",
          "type": "address"
        }
      ],
      "name": "balanceOf",
      "outputs": [
        {
          "internalType": "uint256",
          "name": "",
          "type": "uint256"
        }
      ],
      "stateMutability": "view",
      "type": "function"
    },
    {
      "inputs": [
        {
          "internalType": "uint256",
          "name": "tokenId",
          "type": "uint256"
        }
      ],
      "name": "getApproved",
      "outputs": [
        {
          "internalType": "address",
          "name": "",
          "type": "address"
        }
      ],
      "stateMutability": "view",
      "type": "function"
    },
    {
      "inputs": [
        {
          "internalType": "address",
          "name": "owner",
          "type": "address"
        },
        {
          "internalType": "address",
          "name": "operator",
          "type": "address"
        }
      ],
      "name": "isApprovedForAll",
      "outputs": [
        {
          "internalType": "bool",
          "name": "",
          "type": "bool"
        }
      ],
      "stateMutability": "view",
      "type": "function"
    },
    {
      "inputs": [],
      "name": "makeAnEpicNFT",
      "outputs": [],
      "stateMutability": "nonpayable",
      "type": "function"
    },
    {
      "inputs": [],
      "name": "name",
      "outputs": [
        {
          "internalType": "string",
          "name": "",
          "type": "string"
        }
      ],
      "stateMutability": "view",
      "type": "function"
    },
    {
      "inputs": [
        {
          "internalType": "uint256",
          "name": "tokenId",
          "type": "uint256"
        }
      ],
      "name": "ownerOf",
      "outputs": [
        {
          "internalType": "address",
          "name": "",
          "type": "address"
        }
      ],
      "stateMutability": "view",
      "type": "function"
    },
    {
      "inputs": [
        {
          "internalType": "uint256",
          "name": "tokenId",
          "type": "uint256"
        }
      ],
      "name": "pickRandomColor",
      "outputs": [
        {
          "internalType": "string",
          "name": "",
          "type": "string"
        }
      ],
      "stateMutability": "view",
      "type": "function"
    },
    {
      "inputs": [
        {
          "internalType": "uint256",
          "name": "tokenId",
          "type": "uint256"
        }
      ],
      "name": "pickRandomFirstWord",
      "outputs": [
        {
          "internalType": "string",
          "name": "",
          "type": "string"
        }
      ],
      "stateMutability": "view",
      "type": "function"
    },
    {
      "inputs": [
        {
          "internalType": "uint256",
          "name": "tokenId",
          "type": "uint256"
        }
      ],
      "name": "pickRandomSecondWord",
      "outputs": [
        {
          "internalType": "string",
          "name": "",
          "type": "string"
        }
      ],
      "stateMutability": "view",
      "type": "function"
    },
    {
      "inputs": [
        {
          "internalType": "uint256",
          "name": "tokenId",
          "type": "uint256"
        }
      ],
      "name": "pickRandomThirdWord",
      "outputs": [
        {
          "internalType": "string",
          "name": "",
          "type": "string"
        }
      ],
      "stateMutability": "view",
      "type": "function"
    },
    {
      "inputs": [
        {
          "internalType": "address",
          "name": "from",
          "type": "address"
        },
        {
          "internalType": "address",
          "name": "to",
          "type": "address"
        },
        {
          "internalType": "uint256",
          "name": "tokenId",
          "type": "uint256"
        }
      ],
      "name": "safeTransferFrom",
      "outputs": [],
      "stateMutability": "nonpayable",
      "type": "function"
    },
    {
      "inputs": [
        {
          "internalType": "address",
          "name": "from",
          "type": "address"
        },
        {
          "internalType": "address",
          "name": "to",
          "type": "address"
        },
        {
          "internalType": "uint256",
          "name": "tokenId",
          "type": "uint256"
        },
        {
          "internalType": "bytes",
          "name": "_data",
          "type": "bytes"
        }
      ],
      "name": "safeTransferFrom",
      "outputs": [],
      "stateMutability": "nonpayable",
      "type": "function"
    },
    {
      "inputs": [
        {
          "internalType": "address",
          "name": "operator",
          "type": "address"
        },
        {
          "internalType": "bool",
          "name": "approved",
          "type": "bool"
        }
      ],
      "name": "setApprovalForAll",
      "outputs": [],
      "stateMutability": "nonpayable",
      "type": "function"
    },
    {
      "inputs": [
        {
          "internalType": "bytes4",
          "name": "interfaceId",
          "type": "bytes4"
        }
      ],
      "name": "supportsInterface",
      "outputs": [
        {
          "internalType": "bool",
          "name": "",
          "type": "bool"
        }
      ],
      "stateMutability": "view",
      "type": "function"
    },
    {
      "inputs": [],
      "name": "symbol",
      "outputs": [
        {
          "internalType": "string",
          "name": "",
          "type": "string"
        }
      ],
      "stateMutability": "view",
      "type": "function"
    },
    {
      "inputs": [
        {
          "internalType": "uint256",
          "name": "tokenId",
          "type": "uint256"
        }
      ],
      "name": "tokenURI",
      "outputs": [
        {
          "internalType": "string",
          "name": "",
          "type": "string"
        }
      ],
      "stateMutability": "view",
      "type": "function"
    },
    {
      "inputs": [
        {
          "internalType": "address",
          "name": "from",
          "type": "address"
        },
        {
          "internalType": "address",
          "name": "to",
          "type": "address"
        },
        {
          "internalType": "uint256",
          "name": "tokenId",
          "type": "uint256"
        }
      ],
      "name": "transferFrom",
      "outputs": [],
      "stateMutability": "nonpayable",
      "type": "function"
    }
  ],
  "bytecode": "0x608060405260405180610160016040528061012f81526020016200440561012f913960089080519060200190620000389291906200069a565b5060405180608001604052806040518060400160405280600781526020017f436861706174690000000000000000000000000000000000000000000000000081525081526020016040518060400160405280600a81526020017f4e79616d6143686f6d610000000000000000000000000000000000000000000081525081526020016040518060400160405280600681526020017f4d7574757261000000000000000000000000000000000000000000000000000081525081526020016040518060400160405280600681526020017f53616d6f736100000000000000000000000000000000000000000000000000008152508152506009906004620001409291906200072b565b5060405180608001604052806040518060400160405280600781526020017f4b616e6169726f0000000000000000000000000000000000000000000000000081525081526020016040518060400160405280600581526020017f4368756f6d00000000000000000000000000000000000000000000000000000081525081526020016040518060400160405280600b81526020017f436861706f536d6f6b696500000000000000000000000000000000000000000081525081526020016040518060400160405280600581526020017f5468756675000000000000000000000000000000000000000000000000000000815250815250600a906004620002489291906200072b565b5060405180608001604052806040518060400160405280600581526020017f5368656e6700000000000000000000000000000000000000000000000000000081525081526020016040518060400160405280600481526020017f536f73610000000000000000000000000000000000000000000000000000000081525081526020016040518060400160405280600681526020017f5477656e6465000000000000000000000000000000000000000000000000000081525081526020016040518060400160405280600581526020017f4b656e7961000000000000000000000000000000000000000000000000000000815250815250600b906004620003509291906200072b565b506040518060c001604052806040518060400160405280600781526020017f233233383533340000000000000000000000000000000000000000000000000081525081526020016040518060400160405280600781526020017f233038433241380000000000000000000000000000000000000000000000000081525081526020016040518060400160405280600781526020017f233466386563310000000000000000000000000000000000000000000000000081525081526020016040518060400160405280600781526020017f236637646264350000000000000000000000000000000000000000000000000081525081526020016040518060400160405280600781526020017f233232306130300000000000000000000000000000000000000000000000000081525081526020016040518060400160405280600781526020017f2338383264313700000000000000000000000000000000000000000000000000815250815250600c906006620004ce92919062000792565b50348015620004dc57600080fd5b506040518060400160405280600981526020017f5371756172654e667400000000000000000000000000000000000000000000008152506040518060400160405280600681526020017f53515541524500000000000000000000000000000000000000000000000000008152508160009080519060200190620005619291906200069a565b5080600190805190602001906200057a9291906200069a565b505050620005c86040518060400160405280600e81526020017f54686973206973206d79204e6674000000000000000000000000000000000000815250620005ce60201b620012271760201c565b620009b3565b6200066e81604051602401620005e59190620008c7565b6040516020818303038152906040527f41304fac000000000000000000000000000000000000000000000000000000007bffffffffffffffffffffffffffffffffffffffffffffffffffffffff19166020820180517bffffffffffffffffffffffffffffffffffffffffffffffffffffffff83818316178352505050506200067160201b60201c565b50565b60008151905060006a636f6e736f6c652e6c6f679050602083016000808483855afa5050505050565b828054620006a8906200093d565b90600052602060002090601f016020900481019282620006cc576000855562000718565b82601f10620006e757805160ff191683800117855562000718565b8280016001018555821562000718579182015b8281111562000717578251825591602001919060010190620006fa565b5b509050620007279190620007f9565b5090565b8280548282559060005260206000209081019282156200077f579160200282015b828111156200077e5782518290805190602001906200076d9291906200069a565b50916020019190600101906200074c565b5b5090506200078e919062000818565b5090565b828054828255906000526020600020908101928215620007e6579160200282015b82811115620007e5578251829080519060200190620007d49291906200069a565b5091602001919060010190620007b3565b5b509050620007f5919062000818565b5090565b5b8082111562000814576000816000905550600101620007fa565b5090565b5b808211156200083c576000818162000832919062000840565b5060010162000819565b5090565b5080546200084e906200093d565b6000825580601f1062000862575062000883565b601f016020900490600052602060002090810190620008829190620007f9565b5b50565b60006200089382620008eb565b6200089f8185620008f6565b9350620008b181856020860162000907565b620008bc81620009a2565b840191505092915050565b60006020820190508181036000830152620008e3818462000886565b905092915050565b600081519050919050565b600082825260208201905092915050565b60005b83811015620009275780820151818401526020810190506200090a565b8381111562000937576000848401525b50505050565b600060028204905060018216806200095657607f821691505b602082108114156200096d576200096c62000973565b5b50919050565b7f4e487b7100000000000000000000000000000000000000000000000000000000600052602260045260246000fd5b6000601f19601f8301169050919050565b613a4280620009c36000396000f3fe608060405234801561001057600080fd5b50600436106101165760003560e01c806370a08231116100a2578063b88d4fde11610071578063b88d4fde14610317578063c575757a14610333578063c87b56dd14610363578063de9d132f14610393578063e985e9c51461039d57610116565b806370a082311461027d57806395d89b41146102ad578063a22cb465146102cb578063b187301f146102e757610116565b806323b872dd116100e957806323b872dd146101b55780632de38d68146101d157806342842e0e14610201578063514dc8c61461021d5780636352211e1461024d57610116565b806301ffc9a71461011b57806306fdde031461014b578063081812fc14610169578063095ea7b314610199575b600080fd5b61013560048036038101906101309190612627565b6103cd565b60405161014291906132b8565b60405180910390f35b6101536104af565b60405161016091906132d3565b60405180910390f35b610183600480360381019061017e9190612679565b610541565b6040516101909190613228565b60405180910390f35b6101b360048036038101906101ae91906125eb565b6105c6565b005b6101cf60048036038101906101ca91906124e5565b6106de565b005b6101eb60048036038101906101e69190612679565b61073e565b6040516101f891906132d3565b60405180910390f35b61021b600480360381019061021691906124e5565b61085c565b005b61023760048036038101906102329190612679565b61087c565b60405161024491906132d3565b60405180910390f35b61026760048036038101906102629190612679565b61099a565b6040516102749190613228565b60405180910390f35b61029760048036038101906102929190612480565b610a4c565b6040516102a49190613533565b60405180910390f35b6102b5610b04565b6040516102c291906132d3565b60405180910390f35b6102e560048036038101906102e091906125af565b610b96565b005b61030160048036038101906102fc9190612679565b610bac565b60405161030e91906132d3565b60405180910390f35b610331600480360381019061032c9190612534565b610cca565b005b61034d60048036038101906103489190612679565b610d2c565b60405161035a91906132d3565b60405180910390f35b61037d60048036038101906103789190612679565b610e4a565b60405161038a91906132d3565b60405180910390f35b61039b610f9c565b005b6103b760048036038101906103b291906124a9565b611193565b6040516103c491906132b8565b60405180910390f35b60007f80ac58cd000000000000000000000000000000000000000000000000000000007bffffffffffffffffffffffffffffffffffffffffffffffffffffffff1916827bffffffffffffffffffffffffffffffffffffffffffffffffffffffff1916148061049857507f5b5e139f000000000000000000000000000000000000000000000000000000007bffffffffffffffffffffffffffffffffffffffffffffffffffffffff1916827bffffffffffffffffffffffffffffffffffffffffffffffffffffffff1916145b806104a857506104a7826112c0565b5b9050919050565b6060600080546104be906137d2565b80601f01602080910402602001604051908101604052809291908181526020018280546104ea906137d2565b80156105375780601f1061050c57610100808354040283529160200191610537565b820191906000526020600020905b81548152906001019060200180831161051a57829003601f168201915b5050505050905090565b600061054c8261132a565b61058b576040517f08c379a000000000000000000000000000000000000000000000000000000000815260040161058290613493565b60405180910390fd5b6004600083815260200190815260200160002060009054906101000a900473ffffffffffffffffffffffffffffffffffffffff169050919050565b60006105d18261099a565b90508073ffffffffffffffffffffffffffffffffffffffff168373ffffffffffffffffffffffffffffffffffffffff161415610642576040517f08c379a0000000000000000000000000000000000000000000000000000000008152600401610639906134f3565b60405180910390fd5b8073ffffffffffffffffffffffffffffffffffffffff16610661611396565b73ffffffffffffffffffffffffffffffffffffffff161480610690575061068f8161068a611396565b611193565b5b6106cf576040517f08c379a00000000000000000000000000000000000000000000000000000000081526004016106c6906133d3565b60405180910390fd5b6106d9838361139e565b505050565b6106ef6106e9611396565b82611457565b61072e576040517f08c379a000000000000000000000000000000000000000000000000000000000815260040161072590613513565b60405180910390fd5b610739838383611535565b505050565b6060600061077261074e84611791565b60405160200161075e91906131c2565b60405160208183030381529060405261193e565b905060098054905081610785919061384d565b9050600981815481106107c1577f4e487b7100000000000000000000000000000000000000000000000000000000600052603260045260246000fd5b9060005260206000200180546107d6906137d2565b80601f0160208091040260200160405190810160405280929190818152602001828054610802906137d2565b801561084f5780601f106108245761010080835404028352916020019161084f565b820191906000526020600020905b81548152906001019060200180831161083257829003601f168201915b5050505050915050919050565b61087783838360405180602001604052806000815250610cca565b505050565b606060006108b061088c84611791565b60405160200161089c9190613206565b60405160208183030381529060405261193e565b9050600c80549050816108c3919061384d565b9050600c81815481106108ff577f4e487b7100000000000000000000000000000000000000000000000000000000600052603260045260246000fd5b906000526020600020018054610914906137d2565b80601f0160208091040260200160405190810160405280929190818152602001828054610940906137d2565b801561098d5780601f106109625761010080835404028352916020019161098d565b820191906000526020600020905b81548152906001019060200180831161097057829003601f168201915b5050505050915050919050565b6000806002600084815260200190815260200160002060009054906101000a900473ffffffffffffffffffffffffffffffffffffffff169050600073ffffffffffffffffffffffffffffffffffffffff168173ffffffffffffffffffffffffffffffffffffffff161415610a43576040517f08c379a0000000000000000000000000000000000000000000000000000000008152600401610a3a90613413565b60405180910390fd5b80915050919050565b60008073ffffffffffffffffffffffffffffffffffffffff168273ffffffffffffffffffffffffffffffffffffffff161415610abd576040517f08c379a0000000000000000000000000000000000000000000000000000000008152600401610ab4906133f3565b60405180910390fd5b600360008373ffffffffffffffffffffffffffffffffffffffff1673ffffffffffffffffffffffffffffffffffffffff168152602001908152602001600020549050919050565b606060018054610b13906137d2565b80601f0160208091040260200160405190810160405280929190818152602001828054610b3f906137d2565b8015610b8c5780601f10610b6157610100808354040283529160200191610b8c565b820191906000526020600020905b815481529060010190602001808311610b6f57829003601f168201915b5050505050905090565b610ba8610ba1611396565b8383611971565b5050565b60606000610be0610bbc84611791565b604051602001610bcc919061315b565b60405160208183030381529060405261193e565b9050600a8054905081610bf3919061384d565b9050600a8181548110610c2f577f4e487b7100000000000000000000000000000000000000000000000000000000600052603260045260246000fd5b906000526020600020018054610c44906137d2565b80601f0160208091040260200160405190810160405280929190818152602001828054610c70906137d2565b8015610cbd5780601f10610c9257610100808354040283529160200191610cbd565b820191906000526020600020905b815481529060010190602001808311610ca057829003601f168201915b5050505050915050919050565b610cdb610cd5611396565b83611457565b610d1a576040517f08c379a0000000000000000000000000000000000000000000000000000000008152600401610d1190613513565b60405180910390fd5b610d2684848484611ade565b50505050565b60606000610d60610d3c84611791565b604051602001610d4c9190613139565b60405160208183030381529060405261193e565b9050600b8054905081610d73919061384d565b9050600b8181548110610daf577f4e487b7100000000000000000000000000000000000000000000000000000000600052603260045260246000fd5b906000526020600020018054610dc4906137d2565b80601f0160208091040260200160405190810160405280929190818152602001828054610df0906137d2565b8015610e3d5780601f10610e1257610100808354040283529160200191610e3d565b820191906000526020600020905b815481529060010190602001808311610e2057829003601f168201915b5050505050915050919050565b6060610e558261132a565b610e94576040517f08c379a0000000000000000000000000000000000000000000000000000000008152600401610e8b90613473565b60405180910390fd5b6000600660008481526020019081526020016000208054610eb4906137d2565b80601f0160208091040260200160405190810160405280929190818152602001828054610ee0906137d2565b8015610f2d5780601f10610f0257610100808354040283529160200191610f2d565b820191906000526020600020905b815481529060010190602001808311610f1057829003601f168201915b505050505090506000610f3e611b3a565b9050600081511415610f54578192505050610f97565b600082511115610f89578082604051602001610f719291906130a8565b60405160208183030381529060405292505050610f97565b610f9284611b51565b925050505b919050565b6000610fa86007611bf8565b90506000610fb58261073e565b90506000610fc283610bac565b90506000610fcf84610d2c565b90506000838383604051602001610fe8939291906130cc565b604051602081830303815290604052905060006110048661087c565b905060006008828460405160200161101e939291906130fd565b604051602081830303815290604052905060006110638461103e84611c06565b60405160200161104f92919061317d565b604051602081830303815290604052611c06565b905060008160405160200161107891906131e4565b60405160208183030381529060405290506110c76040518060400160405280601581526020017f0a2d2d2d2d2d2d2d2d2d2d2d2d2d2d2d2d2d2d2d2d0000000000000000000000815250611227565b6110d081611227565b61110e6040518060400160405280601581526020017f2d2d2d2d2d2d2d2d2d2d2d2d2d2d2d2d2d2d2d2d0a0000000000000000000000815250611227565b611118338a611dc4565b6111228982611de2565b61112c6007611e56565b61114f6040518060600160405280602581526020016139a8602591398a33611e6c565b7febb98688741ffa4c7589bf325de30cf7becb63de567842e1ccdb6cb949fdc82c338a60405161118092919061328f565b60405180910390a1505050505050505050565b6000600560008473ffffffffffffffffffffffffffffffffffffffff1673ffffffffffffffffffffffffffffffffffffffff16815260200190815260200160002060008373ffffffffffffffffffffffffffffffffffffffff1673ffffffffffffffffffffffffffffffffffffffff16815260200190815260200160002060009054906101000a900460ff16905092915050565b6112bd8160405160240161123b91906132d3565b6040516020818303038152906040527f41304fac000000000000000000000000000000000000000000000000000000007bffffffffffffffffffffffffffffffffffffffffffffffffffffffff19166020820180517bffffffffffffffffffffffffffffffffffffffffffffffffffffffff8381831617835250505050611f0b565b50565b60007f01ffc9a7000000000000000000000000000000000000000000000000000000007bffffffffffffffffffffffffffffffffffffffffffffffffffffffff1916827bffffffffffffffffffffffffffffffffffffffffffffffffffffffff1916149050919050565b60008073ffffffffffffffffffffffffffffffffffffffff166002600084815260200190815260200160002060009054906101000a900473ffffffffffffffffffffffffffffffffffffffff1673ffffffffffffffffffffffffffffffffffffffff1614159050919050565b600033905090565b816004600083815260200190815260200160002060006101000a81548173ffffffffffffffffffffffffffffffffffffffff021916908373ffffffffffffffffffffffffffffffffffffffff160217905550808273ffffffffffffffffffffffffffffffffffffffff166114118361099a565b73ffffffffffffffffffffffffffffffffffffffff167f8c5be1e5ebec7d5bd14f71427d1e84f3dd0314c0f7b2291e5b200ac8c7c3b92560405160405180910390a45050565b60006114628261132a565b6114a1576040517f08c379a0000000000000000000000000000000000000000000000000000000008152600401611498906133b3565b60405180910390fd5b60006114ac8361099a565b90508073ffffffffffffffffffffffffffffffffffffffff168473ffffffffffffffffffffffffffffffffffffffff16148061151b57508373ffffffffffffffffffffffffffffffffffffffff1661150384610541565b73ffffffffffffffffffffffffffffffffffffffff16145b8061152c575061152b8185611193565b5b91505092915050565b8273ffffffffffffffffffffffffffffffffffffffff166115558261099a565b73ffffffffffffffffffffffffffffffffffffffff16146115ab576040517f08c379a00000000000000000000000000000000000000000000000000000000081526004016115a2906134b3565b60405180910390fd5b600073ffffffffffffffffffffffffffffffffffffffff168273ffffffffffffffffffffffffffffffffffffffff16141561161b576040517f08c379a000000000000000000000000000000000000000000000000000000000815260040161161290613373565b60405180910390fd5b611626838383611f34565b61163160008261139e565b6001600360008573ffffffffffffffffffffffffffffffffffffffff1673ffffffffffffffffffffffffffffffffffffffff168152602001908152602001600020600082825461168191906136e8565b925050819055506001600360008473ffffffffffffffffffffffffffffffffffffffff1673ffffffffffffffffffffffffffffffffffffffff16815260200190815260200160002060008282546116d89190613607565b92505081905550816002600083815260200190815260200160002060006101000a81548173ffffffffffffffffffffffffffffffffffffffff021916908373ffffffffffffffffffffffffffffffffffffffff160217905550808273ffffffffffffffffffffffffffffffffffffffff168473ffffffffffffffffffffffffffffffffffffffff167fddf252ad1be2c89b69c2b068fc378daa952ba7f163c4a11628f55a4df523b3ef60405160405180910390a4505050565b606060008214156117d9576040518060400160405280600181526020017f30000000000000000000000000000000000000000000000000000000000000008152509050611939565b600082905060005b6000821461180b5780806117f490613804565b915050600a82611804919061365d565b91506117e1565b60008167ffffffffffffffff81111561184d577f4e487b7100000000000000000000000000000000000000000000000000000000600052604160045260246000fd5b6040519080825280601f01601f19166020018201604052801561187f5781602001600182028036833780820191505090505b5090505b600085146119325760018261189891906136e8565b9150600a856118a7919061384d565b60306118b39190613607565b60f81b8183815181106118ef577f4e487b7100000000000000000000000000000000000000000000000000000000600052603260045260246000fd5b60200101907effffffffffffffffffffffffffffffffffffffffffffffffffffffffffffff1916908160001a905350600a8561192b919061365d565b9450611883565b8093505050505b919050565b6000816040516020016119519190613091565b6040516020818303038152906040528051906020012060001c9050919050565b8173ffffffffffffffffffffffffffffffffffffffff168373ffffffffffffffffffffffffffffffffffffffff1614156119e0576040517f08c379a00000000000000000000000000000000000000000000000000000000081526004016119d790613393565b60405180910390fd5b80600560008573ffffffffffffffffffffffffffffffffffffffff1673ffffffffffffffffffffffffffffffffffffffff16815260200190815260200160002060008473ffffffffffffffffffffffffffffffffffffffff1673ffffffffffffffffffffffffffffffffffffffff16815260200190815260200160002060006101000a81548160ff0219169083151502179055508173ffffffffffffffffffffffffffffffffffffffff168373ffffffffffffffffffffffffffffffffffffffff167f17307eab39ab6107e8899845ad3d59bd9653f200f220920489ca2b5937696c3183604051611ad191906132b8565b60405180910390a3505050565b611ae9848484611535565b611af584848484611f39565b611b34576040517f08c379a0000000000000000000000000000000000000000000000000000000008152600401611b2b90613333565b60405180910390fd5b50505050565b606060405180602001604052806000815250905090565b6060611b5c8261132a565b611b9b576040517f08c379a0000000000000000000000000000000000000000000000000000000008152600401611b92906134d3565b60405180910390fd5b6000611ba5611b3a565b90506000815111611bc55760405180602001604052806000815250611bf0565b80611bcf84611791565b604051602001611be09291906130a8565b6040516020818303038152906040525b915050919050565b600081600001549050919050565b60606000825190506000811415611c2f5760405180602001604052806000815250915050611dbf565b60006003600283611c409190613607565b611c4a919061365d565b6004611c56919061368e565b90506000602082611c679190613607565b67ffffffffffffffff811115611ca6577f4e487b7100000000000000000000000000000000000000000000000000000000600052604160045260246000fd5b6040519080825280601f01601f191660200182016040528015611cd85781602001600182028036833780820191505090505b50905060006040518060600160405280604081526020016139cd604091399050600181016020830160005b86811015611d7c5760038101905062ffffff818a015116603f8160121c168401518060081b905060ff603f83600c1c1686015116810190508060081b905060ff603f8360061c1686015116810190508060081b905060ff603f831686015116810190508060e01b90508084526004840193505050611d03565b506003860660018114611d965760028114611da657611db1565b613d3d60f01b6002830352611db1565b603d60f81b60018303525b508484525050819450505050505b919050565b611dde8282604051806020016040528060008152506120d0565b5050565b611deb8261132a565b611e2a576040517f08c379a0000000000000000000000000000000000000000000000000000000008152600401611e2190613433565b60405180910390fd5b80600660008481526020019081526020016000209080519060200190611e5192919061230c565b505050565b6001816000016000828254019250508190555050565b611f06838383604051602401611e84939291906132f5565b6040516020818303038152906040527fe3849f79000000000000000000000000000000000000000000000000000000007bffffffffffffffffffffffffffffffffffffffffffffffffffffffff19166020820180517bffffffffffffffffffffffffffffffffffffffffffffffffffffffff8381831617835250505050611f0b565b505050565b60008151905060006a636f6e736f6c652e6c6f679050602083016000808483855afa5050505050565b505050565b6000611f5a8473ffffffffffffffffffffffffffffffffffffffff1661212b565b156120c3578373ffffffffffffffffffffffffffffffffffffffff1663150b7a02611f83611396565b8786866040518563ffffffff1660e01b8152600401611fa59493929190613243565b602060405180830381600087803b158015611fbf57600080fd5b505af1925050508015611ff057506040513d601f19601f82011682018060405250810190611fed9190612650565b60015b612073573d8060008114612020576040519150601f19603f3d011682016040523d82523d6000602084013e612025565b606091505b5060008151141561206b576040517f08c379a000000000000000000000000000000000000000000000000000000000815260040161206290613333565b60405180910390fd5b805181602001fd5b63150b7a0260e01b7bffffffffffffffffffffffffffffffffffffffffffffffffffffffff1916817bffffffffffffffffffffffffffffffffffffffffffffffffffffffff1916149150506120c8565b600190505b949350505050565b6120da838361213e565b6120e76000848484611f39565b612126576040517f08c379a000000000000000000000000000000000000000000000000000000000815260040161211d90613333565b60405180910390fd5b505050565b600080823b905060008111915050919050565b600073ffffffffffffffffffffffffffffffffffffffff168273ffffffffffffffffffffffffffffffffffffffff1614156121ae576040517f08c379a00000000000000000000000000000000000000000000000000000000081526004016121a590613453565b60405180910390fd5b6121b78161132a565b156121f7576040517f08c379a00000000000000000000000000000000000000000000000000000000081526004016121ee90613353565b60405180910390fd5b61220360008383611f34565b6001600360008473ffffffffffffffffffffffffffffffffffffffff1673ffffffffffffffffffffffffffffffffffffffff16815260200190815260200160002060008282546122539190613607565b92505081905550816002600083815260200190815260200160002060006101000a81548173ffffffffffffffffffffffffffffffffffffffff021916908373ffffffffffffffffffffffffffffffffffffffff160217905550808273ffffffffffffffffffffffffffffffffffffffff16600073ffffffffffffffffffffffffffffffffffffffff167fddf252ad1be2c89b69c2b068fc378daa952ba7f163c4a11628f55a4df523b3ef60405160405180910390a45050565b828054612318906137d2565b90600052602060002090601f01602090048101928261233a5760008555612381565b82601f1061235357805160ff1916838001178555612381565b82800160010185558215612381579182015b82811115612380578251825591602001919060010190612365565b5b50905061238e9190612392565b5090565b5b808211156123ab576000816000905550600101612393565b5090565b60006123c26123bd8461357f565b61354e565b9050828152602081018484840111156123da57600080fd5b6123e5848285613790565b509392505050565b6000813590506123fc8161394b565b92915050565b60008135905061241181613962565b92915050565b60008135905061242681613979565b92915050565b60008151905061243b81613979565b92915050565b600082601f83011261245257600080fd5b81356124628482602086016123af565b91505092915050565b60008135905061247a81613990565b92915050565b60006020828403121561249257600080fd5b60006124a0848285016123ed565b91505092915050565b600080604083850312156124bc57600080fd5b60006124ca858286016123ed565b92505060206124db858286016123ed565b9150509250929050565b6000806000606084860312156124fa57600080fd5b6000612508868287016123ed565b9350506020612519868287016123ed565b925050604061252a8682870161246b565b9150509250925092565b6000806000806080858703121561254a57600080fd5b6000612558878288016123ed565b9450506020612569878288016123ed565b935050604061257a8782880161246b565b925050606085013567ffffffffffffffff81111561259757600080fd5b6125a387828801612441565b91505092959194509250565b600080604083850312156125c257600080fd5b60006125d0858286016123ed565b92505060206125e185828601612402565b9150509250929050565b600080604083850312156125fe57600080fd5b600061260c858286016123ed565b925050602061261d8582860161246b565b9150509250929050565b60006020828403121561263957600080fd5b600061264784828501612417565b91505092915050565b60006020828403121561266257600080fd5b60006126708482850161242c565b91505092915050565b60006020828403121561268b57600080fd5b60006126998482850161246b565b91505092915050565b6126ab8161371c565b82525050565b6126ba8161372e565b82525050565b60006126cb826135c4565b6126d581856135da565b93506126e581856020860161379f565b6126ee8161393a565b840191505092915050565b6000612704826135cf565b61270e81856135eb565b935061271e81856020860161379f565b6127278161393a565b840191505092915050565b600061273d826135cf565b61274781856135fc565b935061275781856020860161379f565b80840191505092915050565b60008154612770816137d2565b61277a81866135fc565b9450600182166000811461279557600181146127a6576127d9565b60ff198316865281860193506127d9565b6127af856135af565b60005b838110156127d1578154818901526001820191506020810190506127b2565b838801955050505b50505092915050565b60006127ef6032836135eb565b91507f4552433732313a207472616e7366657220746f206e6f6e20455243373231526560008301527f63656976657220696d706c656d656e74657200000000000000000000000000006020830152604082019050919050565b6000612855601c836135eb565b91507f4552433732313a20746f6b656e20616c7265616479206d696e746564000000006000830152602082019050919050565b6000612895600a836135fc565b91507f54484952445f574f5244000000000000000000000000000000000000000000006000830152600a82019050919050565b60006128d56024836135eb565b91507f4552433732313a207472616e7366657220746f20746865207a65726f2061646460008301527f72657373000000000000000000000000000000000000000000000000000000006020830152604082019050919050565b600061293b6019836135eb565b91507f4552433732313a20617070726f766520746f2063616c6c6572000000000000006000830152602082019050919050565b600061297b6063836135fc565b91507f222c20226465736372697074696f6e223a20224120686967686c79206163636c60008301527f61696d656420636f6c6c656374696f6e206f6620737175617265732e222c202260208301527f696d616765223a2022646174613a696d6167652f7376672b786d6c3b6261736560408301527f36342c00000000000000000000000000000000000000000000000000000000006060830152606382019050919050565b6000612a2d600b836135fc565b91507f5345434f4e445f574f52440000000000000000000000000000000000000000006000830152600b82019050919050565b6000612a6d602c836135eb565b91507f4552433732313a206f70657261746f7220717565727920666f72206e6f6e657860008301527f697374656e7420746f6b656e00000000000000000000000000000000000000006020830152604082019050919050565b6000612ad3600d836135fc565b91507f3c2f746578743e3c2f7376673e000000000000000000000000000000000000006000830152600d82019050919050565b6000612b136038836135eb565b91507f4552433732313a20617070726f76652063616c6c6572206973206e6f74206f7760008301527f6e6572206e6f7220617070726f76656420666f7220616c6c00000000000000006020830152604082019050919050565b6000612b79602a836135eb565b91507f4552433732313a2062616c616e636520717565727920666f7220746865207a6560008301527f726f2061646472657373000000000000000000000000000000000000000000006020830152604082019050919050565b6000612bdf6029836135eb565b91507f4552433732313a206f776e657220717565727920666f72206e6f6e657869737460008301527f656e7420746f6b656e00000000000000000000000000000000000000000000006020830152604082019050919050565b6000612c45602e836135eb565b91507f45524337323155524953746f726167653a2055524920736574206f66206e6f6e60008301527f6578697374656e7420746f6b656e0000000000000000000000000000000000006020830152604082019050919050565b6000612cab6002836135fc565b91507f227d0000000000000000000000000000000000000000000000000000000000006000830152600282019050919050565b6000612ceb6020836135eb565b91507f4552433732313a206d696e7420746f20746865207a65726f20616464726573736000830152602082019050919050565b6000612d2b6031836135eb565b91507f45524337323155524953746f726167653a2055524920717565727920666f722060008301527f6e6f6e6578697374656e7420746f6b656e0000000000000000000000000000006020830152604082019050919050565b6000612d91602c836135eb565b91507f4552433732313a20617070726f76656420717565727920666f72206e6f6e657860008301527f697374656e7420746f6b656e00000000000000000000000000000000000000006020830152604082019050919050565b6000612df76029836135eb565b91507f4552433732313a207472616e73666572206f6620746f6b656e2074686174206960008301527f73206e6f74206f776e00000000000000000000000000000000000000000000006020830152604082019050919050565b6000612e5d602f836135eb565b91507f4552433732314d657461646174613a2055524920717565727920666f72206e6f60008301527f6e6578697374656e7420746f6b656e00000000000000000000000000000000006020830152604082019050919050565b6000612ec3600a836135fc565b91507f7b226e616d65223a2022000000000000000000000000000000000000000000006000830152600a82019050919050565b6000612f036021836135eb565b91507f4552433732313a20617070726f76616c20746f2063757272656e74206f776e6560008301527f72000000000000000000000000000000000000000000000000000000000000006020830152604082019050919050565b6000612f69600a836135fc565b91507f46495253545f574f5244000000000000000000000000000000000000000000006000830152600a82019050919050565b6000612fa9601d836135fc565b91507f646174613a6170706c69636174696f6e2f6a736f6e3b6261736536342c0000006000830152601d82019050919050565b6000612fe96031836135eb565b91507f4552433732313a207472616e736665722063616c6c6572206973206e6f74206f60008301527f776e6572206e6f7220617070726f7665640000000000000000000000000000006020830152604082019050919050565b600061304f6005836135fc565b91507f434f4c4f520000000000000000000000000000000000000000000000000000006000830152600582019050919050565b61308b81613786565b82525050565b600061309d8284612732565b915081905092915050565b60006130b48285612732565b91506130c08284612732565b91508190509392505050565b60006130d88286612732565b91506130e48285612732565b91506130f08284612732565b9150819050949350505050565b60006131098286612763565b91506131158285612732565b91506131218284612732565b915061312c82612ac6565b9150819050949350505050565b600061314482612888565b91506131508284612732565b915081905092915050565b600061316682612a20565b91506131728284612732565b915081905092915050565b600061318882612eb6565b91506131948285612732565b915061319f8261296e565b91506131ab8284612732565b91506131b682612c9e565b91508190509392505050565b60006131cd82612f5c565b91506131d98284612732565b915081905092915050565b60006131ef82612f9c565b91506131fb8284612732565b915081905092915050565b600061321182613042565b915061321d8284612732565b915081905092915050565b600060208201905061323d60008301846126a2565b92915050565b600060808201905061325860008301876126a2565b61326560208301866126a2565b6132726040830185613082565b818103606083015261328481846126c0565b905095945050505050565b60006040820190506132a460008301856126a2565b6132b16020830184613082565b9392505050565b60006020820190506132cd60008301846126b1565b92915050565b600060208201905081810360008301526132ed81846126f9565b905092915050565b6000606082019050818103600083015261330f81866126f9565b905061331e6020830185613082565b61332b60408301846126a2565b949350505050565b6000602082019050818103600083015261334c816127e2565b9050919050565b6000602082019050818103600083015261336c81612848565b9050919050565b6000602082019050818103600083015261338c816128c8565b9050919050565b600060208201905081810360008301526133ac8161292e565b9050919050565b600060208201905081810360008301526133cc81612a60565b9050919050565b600060208201905081810360008301526133ec81612b06565b9050919050565b6000602082019050818103600083015261340c81612b6c565b9050919050565b6000602082019050818103600083015261342c81612bd2565b9050919050565b6000602082019050818103600083015261344c81612c38565b9050919050565b6000602082019050818103600083015261346c81612cde565b9050919050565b6000602082019050818103600083015261348c81612d1e565b9050919050565b600060208201905081810360008301526134ac81612d84565b9050919050565b600060208201905081810360008301526134cc81612dea565b9050919050565b600060208201905081810360008301526134ec81612e50565b9050919050565b6000602082019050818103600083015261350c81612ef6565b9050919050565b6000602082019050818103600083015261352c81612fdc565b9050919050565b60006020820190506135486000830184613082565b92915050565b6000604051905081810181811067ffffffffffffffff821117156135755761357461390b565b5b8060405250919050565b600067ffffffffffffffff82111561359a5761359961390b565b5b601f19601f8301169050602081019050919050565b60008190508160005260206000209050919050565b600081519050919050565b600081519050919050565b600082825260208201905092915050565b600082825260208201905092915050565b600081905092915050565b600061361282613786565b915061361d83613786565b9250827fffffffffffffffffffffffffffffffffffffffffffffffffffffffffffffffff038211156136525761365161387e565b5b828201905092915050565b600061366882613786565b915061367383613786565b925082613683576136826138ad565b5b828204905092915050565b600061369982613786565b91506136a483613786565b9250817fffffffffffffffffffffffffffffffffffffffffffffffffffffffffffffffff04831182151516156136dd576136dc61387e565b5b828202905092915050565b60006136f382613786565b91506136fe83613786565b9250828210156137115761371061387e565b5b828203905092915050565b600061372782613766565b9050919050565b60008115159050919050565b60007fffffffff0000000000000000000000000000000000000000000000000000000082169050919050565b600073ffffffffffffffffffffffffffffffffffffffff82169050919050565b6000819050919050565b82818337600083830152505050565b60005b838110156137bd5780820151818401526020810190506137a2565b838111156137cc576000848401525b50505050565b600060028204905060018216806137ea57607f821691505b602082108114156137fe576137fd6138dc565b5b50919050565b600061380f82613786565b91507fffffffffffffffffffffffffffffffffffffffffffffffffffffffffffffffff8214156138425761384161387e565b5b600182019050919050565b600061385882613786565b915061386383613786565b925082613873576138726138ad565b5b828206905092915050565b7f4e487b7100000000000000000000000000000000000000000000000000000000600052601160045260246000fd5b7f4e487b7100000000000000000000000000000000000000000000000000000000600052601260045260246000fd5b7f4e487b7100000000000000000000000000000000000000000000000000000000600052602260045260246000fd5b7f4e487b7100000000000000000000000000000000000000000000000000000000600052604160045260246000fd5b6000601f19601f8301169050919050565b6139548161371c565b811461395f57600080fd5b50565b61396b8161372e565b811461397657600080fd5b50565b6139828161373a565b811461398d57600080fd5b50565b61399981613786565b81146139a457600080fd5b5056fe416e204e465420772f20494420257320686173206265656e206d696e74656420746f2025734142434445464748494a4b4c4d4e4f505152535455565758595a6162636465666768696a6b6c6d6e6f707172737475767778797a303132333435363738392b2fa2646970667358221220b85eb209ef5e4128acfa057ac956f81280dbb4fb646e92494b4163bcf9ef870064736f6c634300080000333c73766720786d6c6e733d27687474703a2f2f7777772e77332e6f72672f323030302f73766727207072657365727665417370656374526174696f3d27784d696e594d696e206d656574272076696577426f783d273020302033353020333530273e3c7374796c653e2e62617365207b2066696c6c3a2077686974653b20666f6e742d66616d696c793a2073657269663b20666f6e742d73697a653a20323470783b207d3c2f7374796c653e3c726563742077696474683d273130302527206865696768743d2731303025272066696c6c3d27626c61636b27202f3e3c7465787420783d273530252720793d273530252720636c6173733d27626173652720646f6d696e616e742d626173656c696e653d276d6964646c652720746578742d616e63686f723d276d6964646c65273e",
  "linkReferences": {},
  "deployedLinkReferences": {}
}