{
  "_format": "hh-sol-artifact-1",
  "contractName": "MyEpicNft",
  "sourceName": "contracts/MyEpicNft.sol",
  "abi": [
    {
      "inputs": [],
      "stateMutability": "nonpayable",
      "type": "constructor"
    },
    {
      "anonymous": false,
      "inputs": [
        {
          "indexed": true,
          "internalType": "address",
          "name": "owner",
          "type": "address"
        },
        {
          "indexed": true,
          "internalType": "address",
          "name": "approved",
          "type": "address"
        },
        {
          "indexed": true,
          "internalType": "uint256",
          "name": "tokenId",
          "type": "uint256"
        }
      ],
      "name": "Approval",
      "type": "event"
    },
    {
      "anonymous": false,
      "inputs": [
        {
          "indexed": true,
          "internalType": "address",
          "name": "owner",
          "type": "address"
        },
        {
          "indexed": true,
          "internalType": "address",
          "name": "operator",
          "type": "address"
        },
        {
          "indexed": false,
          "internalType": "bool",
          "name": "approved",
          "type": "bool"
        }
      ],
      "name": "ApprovalForAll",
      "type": "event"
    },
    {
      "anonymous": false,
      "inputs": [
        {
          "indexed": false,
          "internalType": "address",
          "name": "sender",
          "type": "address"
        },
        {
          "indexed": false,
          "internalType": "uint256",
          "name": "tokenId",
          "type": "uint256"
        }
      ],
      "name": "NewEpicNFTMinted",
      "type": "event"
    },
    {
      "anonymous": false,
      "inputs": [
        {
          "indexed": true,
          "internalType": "address",
          "name": "from",
          "type": "address"
        },
        {
          "indexed": true,
          "internalType": "address",
          "name": "to",
          "type": "address"
        },
        {
          "indexed": true,
          "internalType": "uint256",
          "name": "tokenId",
          "type": "uint256"
        }
      ],
      "name": "Transfer",
      "type": "event"
    },
    {
      "inputs": [
        {
          "internalType": "address",
          "name": "to",
          "type": "address"
        },
        {
          "internalType": "uint256",
          "name": "tokenId",
          "type": "uint256"
        }
      ],
      "name": "approve",
      "outputs": [],
      "stateMutability": "nonpayable",
      "type": "function"
    },
    {
      "inputs": [
        {
          "internalType": "address",
          "name": "owner",
          "type": "address"
        }
      ],
      "name": "balanceOf",
      "outputs": [
        {
          "internalType": "uint256",
          "name": "",
          "type": "uint256"
        }
      ],
      "stateMutability": "view",
      "type": "function"
    },
    {
      "inputs": [
        {
          "internalType": "uint256",
          "name": "tokenId",
          "type": "uint256"
        }
      ],
      "name": "getApproved",
      "outputs": [
        {
          "internalType": "address",
          "name": "",
          "type": "address"
        }
      ],
      "stateMutability": "view",
      "type": "function"
    },
    {
      "inputs": [],
      "name": "getTotalNftsMinted",
      "outputs": [
        {
          "internalType": "uint256",
          "name": "",
          "type": "uint256"
        }
      ],
      "stateMutability": "view",
      "type": "function"
    },
    {
      "inputs": [
        {
          "internalType": "address",
          "name": "owner",
          "type": "address"
        },
        {
          "internalType": "address",
          "name": "operator",
          "type": "address"
        }
      ],
      "name": "isApprovedForAll",
      "outputs": [
        {
          "internalType": "bool",
          "name": "",
          "type": "bool"
        }
      ],
      "stateMutability": "view",
      "type": "function"
    },
    {
      "inputs": [],
      "name": "makeAnEpicNFT",
      "outputs": [],
      "stateMutability": "nonpayable",
      "type": "function"
    },
    {
      "inputs": [],
      "name": "name",
      "outputs": [
        {
          "internalType": "string",
          "name": "",
          "type": "string"
        }
      ],
      "stateMutability": "view",
      "type": "function"
    },
    {
      "inputs": [
        {
          "internalType": "uint256",
          "name": "tokenId",
          "type": "uint256"
        }
      ],
      "name": "ownerOf",
      "outputs": [
        {
          "internalType": "address",
          "name": "",
          "type": "address"
        }
      ],
      "stateMutability": "view",
      "type": "function"
    },
    {
      "inputs": [
        {
          "internalType": "uint256",
          "name": "tokenId",
          "type": "uint256"
        }
      ],
      "name": "pickRandomColor",
      "outputs": [
        {
          "internalType": "string",
          "name": "",
          "type": "string"
        }
      ],
      "stateMutability": "view",
      "type": "function"
    },
    {
      "inputs": [
        {
          "internalType": "uint256",
          "name": "tokenId",
          "type": "uint256"
        }
      ],
      "name": "pickRandomFirstWord",
      "outputs": [
        {
          "internalType": "string",
          "name": "",
          "type": "string"
        }
      ],
      "stateMutability": "view",
      "type": "function"
    },
    {
      "inputs": [
        {
          "internalType": "uint256",
          "name": "tokenId",
          "type": "uint256"
        }
      ],
      "name": "pickRandomSecondWord",
      "outputs": [
        {
          "internalType": "string",
          "name": "",
          "type": "string"
        }
      ],
      "stateMutability": "view",
      "type": "function"
    },
    {
      "inputs": [
        {
          "internalType": "uint256",
          "name": "tokenId",
          "type": "uint256"
        }
      ],
      "name": "pickRandomThirdWord",
      "outputs": [
        {
          "internalType": "string",
          "name": "",
          "type": "string"
        }
      ],
      "stateMutability": "view",
      "type": "function"
    },
    {
      "inputs": [
        {
          "internalType": "address",
          "name": "from",
          "type": "address"
        },
        {
          "internalType": "address",
          "name": "to",
          "type": "address"
        },
        {
          "internalType": "uint256",
          "name": "tokenId",
          "type": "uint256"
        }
      ],
      "name": "safeTransferFrom",
      "outputs": [],
      "stateMutability": "nonpayable",
      "type": "function"
    },
    {
      "inputs": [
        {
          "internalType": "address",
          "name": "from",
          "type": "address"
        },
        {
          "internalType": "address",
          "name": "to",
          "type": "address"
        },
        {
          "internalType": "uint256",
          "name": "tokenId",
          "type": "uint256"
        },
        {
          "internalType": "bytes",
          "name": "_data",
          "type": "bytes"
        }
      ],
      "name": "safeTransferFrom",
      "outputs": [],
      "stateMutability": "nonpayable",
      "type": "function"
    },
    {
      "inputs": [
        {
          "internalType": "address",
          "name": "operator",
          "type": "address"
        },
        {
          "internalType": "bool",
          "name": "approved",
          "type": "bool"
        }
      ],
      "name": "setApprovalForAll",
      "outputs": [],
      "stateMutability": "nonpayable",
      "type": "function"
    },
    {
      "inputs": [
        {
          "internalType": "bytes4",
          "name": "interfaceId",
          "type": "bytes4"
        }
      ],
      "name": "supportsInterface",
      "outputs": [
        {
          "internalType": "bool",
          "name": "",
          "type": "bool"
        }
      ],
      "stateMutability": "view",
      "type": "function"
    },
    {
      "inputs": [],
      "name": "symbol",
      "outputs": [
        {
          "internalType": "string",
          "name": "",
          "type": "string"
        }
      ],
      "stateMutability": "view",
      "type": "function"
    },
    {
      "inputs": [
        {
          "internalType": "uint256",
          "name": "tokenId",
          "type": "uint256"
        }
      ],
      "name": "tokenURI",
      "outputs": [
        {
          "internalType": "string",
          "name": "",
          "type": "string"
        }
      ],
      "stateMutability": "view",
      "type": "function"
    },
    {
      "inputs": [
        {
          "internalType": "address",
          "name": "from",
          "type": "address"
        },
        {
          "internalType": "address",
          "name": "to",
          "type": "address"
        },
        {
          "internalType": "uint256",
          "name": "tokenId",
          "type": "uint256"
        }
      ],
      "name": "transferFrom",
      "outputs": [],
      "stateMutability": "nonpayable",
      "type": "function"
    }
  ],
  "bytecode": "0x608060405260405180610160016040528061012f8152602001620044e261012f913960089080519060200190620000389291906200069a565b5060405180608001604052806040518060400160405280600781526020017f436861706174690000000000000000000000000000000000000000000000000081525081526020016040518060400160405280600a81526020017f4e79616d6143686f6d610000000000000000000000000000000000000000000081525081526020016040518060400160405280600681526020017f4d7574757261000000000000000000000000000000000000000000000000000081525081526020016040518060400160405280600681526020017f53616d6f736100000000000000000000000000000000000000000000000000008152508152506009906004620001409291906200072b565b5060405180608001604052806040518060400160405280600781526020017f4b616e6169726f0000000000000000000000000000000000000000000000000081525081526020016040518060400160405280600581526020017f4368756f6d00000000000000000000000000000000000000000000000000000081525081526020016040518060400160405280600b81526020017f436861706f536d6f6b696500000000000000000000000000000000000000000081525081526020016040518060400160405280600581526020017f5468756675000000000000000000000000000000000000000000000000000000815250815250600a906004620002489291906200072b565b5060405180608001604052806040518060400160405280600581526020017f5368656e6700000000000000000000000000000000000000000000000000000081525081526020016040518060400160405280600481526020017f536f73610000000000000000000000000000000000000000000000000000000081525081526020016040518060400160405280600681526020017f5477656e6465000000000000000000000000000000000000000000000000000081525081526020016040518060400160405280600581526020017f4b656e7961000000000000000000000000000000000000000000000000000000815250815250600b906004620003509291906200072b565b506040518060c001604052806040518060400160405280600781526020017f233233383533340000000000000000000000000000000000000000000000000081525081526020016040518060400160405280600781526020017f233038433241380000000000000000000000000000000000000000000000000081525081526020016040518060400160405280600781526020017f233466386563310000000000000000000000000000000000000000000000000081525081526020016040518060400160405280600781526020017f236637646264350000000000000000000000000000000000000000000000000081525081526020016040518060400160405280600781526020017f233232306130300000000000000000000000000000000000000000000000000081525081526020016040518060400160405280600781526020017f2338383264313700000000000000000000000000000000000000000000000000815250815250600c906006620004ce92919062000792565b50348015620004dc57600080fd5b506040518060400160405280600981526020017f5371756172654e667400000000000000000000000000000000000000000000008152506040518060400160405280600681526020017f53515541524500000000000000000000000000000000000000000000000000008152508160009080519060200190620005619291906200069a565b5080600190805190602001906200057a9291906200069a565b505050620005c86040518060400160405280600e81526020017f54686973206973206d79204e6674000000000000000000000000000000000000815250620005ce60201b620012a41760201c565b620009b3565b6200066e81604051602401620005e59190620008c7565b6040516020818303038152906040527f41304fac000000000000000000000000000000000000000000000000000000007bffffffffffffffffffffffffffffffffffffffffffffffffffffffff19166020820180517bffffffffffffffffffffffffffffffffffffffffffffffffffffffff83818316178352505050506200067160201b60201c565b50565b60008151905060006a636f6e736f6c652e6c6f679050602083016000808483855afa5050505050565b828054620006a8906200093d565b90600052602060002090601f016020900481019282620006cc576000855562000718565b82601f10620006e757805160ff191683800117855562000718565b8280016001018555821562000718579182015b8281111562000717578251825591602001919060010190620006fa565b5b509050620007279190620007f9565b5090565b8280548282559060005260206000209081019282156200077f579160200282015b828111156200077e5782518290805190602001906200076d9291906200069a565b50916020019190600101906200074c565b5b5090506200078e919062000818565b5090565b828054828255906000526020600020908101928215620007e6579160200282015b82811115620007e5578251829080519060200190620007d49291906200069a565b5091602001919060010190620007b3565b5b509050620007f5919062000818565b5090565b5b8082111562000814576000816000905550600101620007fa565b5090565b5b808211156200083c576000818162000832919062000840565b5060010162000819565b5090565b5080546200084e906200093d565b6000825580601f1062000862575062000883565b601f016020900490600052602060002090810190620008829190620007f9565b5b50565b60006200089382620008eb565b6200089f8185620008f6565b9350620008b181856020860162000907565b620008bc81620009a2565b840191505092915050565b60006020820190508181036000830152620008e3818462000886565b905092915050565b600081519050919050565b600082825260208201905092915050565b60005b83811015620009275780820151818401526020810190506200090a565b8381111562000937576000848401525b50505050565b600060028204905060018216806200095657607f821691505b602082108114156200096d576200096c62000973565b5b50919050565b7f4e487b7100000000000000000000000000000000000000000000000000000000600052602260045260246000fd5b6000601f19601f8301169050919050565b613b1f80620009c36000396000f3fe608060405234801561001057600080fd5b50600436106101215760003560e01c806370a08231116100ad578063c1d6008311610071578063c1d600831461033e578063c575757a1461035c578063c87b56dd1461038c578063de9d132f146103bc578063e985e9c5146103c657610121565b806370a082311461028857806395d89b41146102b8578063a22cb465146102d6578063b187301f146102f2578063b88d4fde1461032257610121565b806323b872dd116100f457806323b872dd146101c05780632de38d68146101dc57806342842e0e1461020c578063514dc8c6146102285780636352211e1461025857610121565b806301ffc9a71461012657806306fdde0314610156578063081812fc14610174578063095ea7b3146101a4575b600080fd5b610140600480360381019061013b91906126a4565b6103f6565b60405161014d9190613375565b60405180910390f35b61015e6104d8565b60405161016b9190613390565b60405180910390f35b61018e600480360381019061018991906126f6565b61056a565b60405161019b91906132e5565b60405180910390f35b6101be60048036038101906101b99190612668565b6105ef565b005b6101da60048036038101906101d59190612562565b610707565b005b6101f660048036038101906101f191906126f6565b610767565b6040516102039190613390565b60405180910390f35b61022660048036038101906102219190612562565b610885565b005b610242600480360381019061023d91906126f6565b6108a5565b60405161024f9190613390565b60405180910390f35b610272600480360381019061026d91906126f6565b6109c3565b60405161027f91906132e5565b60405180910390f35b6102a2600480360381019061029d91906124fd565b610a75565b6040516102af9190613610565b60405180910390f35b6102c0610b2d565b6040516102cd9190613390565b60405180910390f35b6102f060048036038101906102eb919061262c565b610bbf565b005b61030c600480360381019061030791906126f6565b610bd5565b6040516103199190613390565b60405180910390f35b61033c600480360381019061033791906125b1565b610cf3565b005b610346610d55565b6040516103539190613610565b60405180910390f35b610376600480360381019061037191906126f6565b610d66565b6040516103839190613390565b60405180910390f35b6103a660048036038101906103a191906126f6565b610e84565b6040516103b39190613390565b60405180910390f35b6103c4610fd6565b005b6103e060048036038101906103db9190612526565b611210565b6040516103ed9190613375565b60405180910390f35b60007f80ac58cd000000000000000000000000000000000000000000000000000000007bffffffffffffffffffffffffffffffffffffffffffffffffffffffff1916827bffffffffffffffffffffffffffffffffffffffffffffffffffffffff191614806104c157507f5b5e139f000000000000000000000000000000000000000000000000000000007bffffffffffffffffffffffffffffffffffffffffffffffffffffffff1916827bffffffffffffffffffffffffffffffffffffffffffffffffffffffff1916145b806104d157506104d08261133d565b5b9050919050565b6060600080546104e7906138af565b80601f0160208091040260200160405190810160405280929190818152602001828054610513906138af565b80156105605780601f1061053557610100808354040283529160200191610560565b820191906000526020600020905b81548152906001019060200180831161054357829003601f168201915b5050505050905090565b6000610575826113a7565b6105b4576040517f08c379a00000000000000000000000000000000000000000000000000000000081526004016105ab90613570565b60405180910390fd5b6004600083815260200190815260200160002060009054906101000a900473ffffffffffffffffffffffffffffffffffffffff169050919050565b60006105fa826109c3565b90508073ffffffffffffffffffffffffffffffffffffffff168373ffffffffffffffffffffffffffffffffffffffff16141561066b576040517f08c379a0000000000000000000000000000000000000000000000000000000008152600401610662906135d0565b60405180910390fd5b8073ffffffffffffffffffffffffffffffffffffffff1661068a611413565b73ffffffffffffffffffffffffffffffffffffffff1614806106b957506106b8816106b3611413565b611210565b5b6106f8576040517f08c379a00000000000000000000000000000000000000000000000000000000081526004016106ef906134b0565b60405180910390fd5b610702838361141b565b505050565b610718610712611413565b826114d4565b610757576040517f08c379a000000000000000000000000000000000000000000000000000000000815260040161074e906135f0565b60405180910390fd5b6107628383836115b2565b505050565b6060600061079b6107778461180e565b604051602001610787919061327f565b6040516020818303038152906040526119bb565b9050600980549050816107ae919061392a565b9050600981815481106107ea577f4e487b7100000000000000000000000000000000000000000000000000000000600052603260045260246000fd5b9060005260206000200180546107ff906138af565b80601f016020809104026020016040519081016040528092919081815260200182805461082b906138af565b80156108785780601f1061084d57610100808354040283529160200191610878565b820191906000526020600020905b81548152906001019060200180831161085b57829003601f168201915b5050505050915050919050565b6108a083838360405180602001604052806000815250610cf3565b505050565b606060006108d96108b58461180e565b6040516020016108c591906132c3565b6040516020818303038152906040526119bb565b9050600c80549050816108ec919061392a565b9050600c8181548110610928577f4e487b7100000000000000000000000000000000000000000000000000000000600052603260045260246000fd5b90600052602060002001805461093d906138af565b80601f0160208091040260200160405190810160405280929190818152602001828054610969906138af565b80156109b65780601f1061098b576101008083540402835291602001916109b6565b820191906000526020600020905b81548152906001019060200180831161099957829003601f168201915b5050505050915050919050565b6000806002600084815260200190815260200160002060009054906101000a900473ffffffffffffffffffffffffffffffffffffffff169050600073ffffffffffffffffffffffffffffffffffffffff168173ffffffffffffffffffffffffffffffffffffffff161415610a6c576040517f08c379a0000000000000000000000000000000000000000000000000000000008152600401610a63906134f0565b60405180910390fd5b80915050919050565b60008073ffffffffffffffffffffffffffffffffffffffff168273ffffffffffffffffffffffffffffffffffffffff161415610ae6576040517f08c379a0000000000000000000000000000000000000000000000000000000008152600401610add906134d0565b60405180910390fd5b600360008373ffffffffffffffffffffffffffffffffffffffff1673ffffffffffffffffffffffffffffffffffffffff168152602001908152602001600020549050919050565b606060018054610b3c906138af565b80601f0160208091040260200160405190810160405280929190818152602001828054610b68906138af565b8015610bb55780601f10610b8a57610100808354040283529160200191610bb5565b820191906000526020600020905b815481529060010190602001808311610b9857829003601f168201915b5050505050905090565b610bd1610bca611413565b83836119ee565b5050565b60606000610c09610be58461180e565b604051602001610bf59190613218565b6040516020818303038152906040526119bb565b9050600a8054905081610c1c919061392a565b9050600a8181548110610c58577f4e487b7100000000000000000000000000000000000000000000000000000000600052603260045260246000fd5b906000526020600020018054610c6d906138af565b80601f0160208091040260200160405190810160405280929190818152602001828054610c99906138af565b8015610ce65780601f10610cbb57610100808354040283529160200191610ce6565b820191906000526020600020905b815481529060010190602001808311610cc957829003601f168201915b5050505050915050919050565b610d04610cfe611413565b836114d4565b610d43576040517f08c379a0000000000000000000000000000000000000000000000000000000008152600401610d3a906135f0565b60405180910390fd5b610d4f84848484611b5b565b50505050565b6000610d616007611bb7565b905090565b60606000610d9a610d768461180e565b604051602001610d8691906131f6565b6040516020818303038152906040526119bb565b9050600b8054905081610dad919061392a565b9050600b8181548110610de9577f4e487b7100000000000000000000000000000000000000000000000000000000600052603260045260246000fd5b906000526020600020018054610dfe906138af565b80601f0160208091040260200160405190810160405280929190818152602001828054610e2a906138af565b8015610e775780601f10610e4c57610100808354040283529160200191610e77565b820191906000526020600020905b815481529060010190602001808311610e5a57829003601f168201915b5050505050915050919050565b6060610e8f826113a7565b610ece576040517f08c379a0000000000000000000000000000000000000000000000000000000008152600401610ec590613550565b60405180910390fd5b6000600660008481526020019081526020016000208054610eee906138af565b80601f0160208091040260200160405190810160405280929190818152602001828054610f1a906138af565b8015610f675780601f10610f3c57610100808354040283529160200191610f67565b820191906000526020600020905b815481529060010190602001808311610f4a57829003601f168201915b505050505090506000610f78611bc5565b9050600081511415610f8e578192505050610fd1565b600082511115610fc3578082604051602001610fab929190613165565b60405160208183030381529060405292505050610fd1565b610fcc84611bdc565b925050505b919050565b6000610fe26007611bb7565b90506000610fef82610767565b90506000610ffc83610bd5565b9050600061100984610d66565b9050600083838360405160200161102293929190613189565b6040516020818303038152906040529050600061103e866108a5565b9050600060088284604051602001611058939291906131ba565b6040516020818303038152906040529050600061109d8461107884611c83565b60405160200161108992919061323a565b604051602081830303815290604052611c83565b90506000816040516020016110b291906132a1565b60405160208183030381529060405290506111016040518060400160405280601581526020017f0a2d2d2d2d2d2d2d2d2d2d2d2d2d2d2d2d2d2d2d2d00000000000000000000008152506112a4565b61110a816112a4565b6111486040518060400160405280601581526020017f2d2d2d2d2d2d2d2d2d2d2d2d2d2d2d2d2d2d2d2d0a00000000000000000000008152506112a4565b611152338a611e41565b61115c8982611e5f565b6111666007611ed3565b611189604051806060016040528060258152602001613a85602591398a33611ee9565b603289106111cc576040517f08c379a00000000000000000000000000000000000000000000000000000000081526004016111c390613410565b60405180910390fd5b7febb98688741ffa4c7589bf325de30cf7becb63de567842e1ccdb6cb949fdc82c338a6040516111fd92919061334c565b60405180910390a1505050505050505050565b6000600560008473ffffffffffffffffffffffffffffffffffffffff1673ffffffffffffffffffffffffffffffffffffffff16815260200190815260200160002060008373ffffffffffffffffffffffffffffffffffffffff1673ffffffffffffffffffffffffffffffffffffffff16815260200190815260200160002060009054906101000a900460ff16905092915050565b61133a816040516024016112b89190613390565b6040516020818303038152906040527f41304fac000000000000000000000000000000000000000000000000000000007bffffffffffffffffffffffffffffffffffffffffffffffffffffffff19166020820180517bffffffffffffffffffffffffffffffffffffffffffffffffffffffff8381831617835250505050611f88565b50565b60007f01ffc9a7000000000000000000000000000000000000000000000000000000007bffffffffffffffffffffffffffffffffffffffffffffffffffffffff1916827bffffffffffffffffffffffffffffffffffffffffffffffffffffffff1916149050919050565b60008073ffffffffffffffffffffffffffffffffffffffff166002600084815260200190815260200160002060009054906101000a900473ffffffffffffffffffffffffffffffffffffffff1673ffffffffffffffffffffffffffffffffffffffff1614159050919050565b600033905090565b816004600083815260200190815260200160002060006101000a81548173ffffffffffffffffffffffffffffffffffffffff021916908373ffffffffffffffffffffffffffffffffffffffff160217905550808273ffffffffffffffffffffffffffffffffffffffff1661148e836109c3565b73ffffffffffffffffffffffffffffffffffffffff167f8c5be1e5ebec7d5bd14f71427d1e84f3dd0314c0f7b2291e5b200ac8c7c3b92560405160405180910390a45050565b60006114df826113a7565b61151e576040517f08c379a000000000000000000000000000000000000000000000000000000000815260040161151590613490565b60405180910390fd5b6000611529836109c3565b90508073ffffffffffffffffffffffffffffffffffffffff168473ffffffffffffffffffffffffffffffffffffffff16148061159857508373ffffffffffffffffffffffffffffffffffffffff166115808461056a565b73ffffffffffffffffffffffffffffffffffffffff16145b806115a957506115a88185611210565b5b91505092915050565b8273ffffffffffffffffffffffffffffffffffffffff166115d2826109c3565b73ffffffffffffffffffffffffffffffffffffffff1614611628576040517f08c379a000000000000000000000000000000000000000000000000000000000815260040161161f90613590565b60405180910390fd5b600073ffffffffffffffffffffffffffffffffffffffff168273ffffffffffffffffffffffffffffffffffffffff161415611698576040517f08c379a000000000000000000000000000000000000000000000000000000000815260040161168f90613450565b60405180910390fd5b6116a3838383611fb1565b6116ae60008261141b565b6001600360008573ffffffffffffffffffffffffffffffffffffffff1673ffffffffffffffffffffffffffffffffffffffff16815260200190815260200160002060008282546116fe91906137c5565b925050819055506001600360008473ffffffffffffffffffffffffffffffffffffffff1673ffffffffffffffffffffffffffffffffffffffff168152602001908152602001600020600082825461175591906136e4565b92505081905550816002600083815260200190815260200160002060006101000a81548173ffffffffffffffffffffffffffffffffffffffff021916908373ffffffffffffffffffffffffffffffffffffffff160217905550808273ffffffffffffffffffffffffffffffffffffffff168473ffffffffffffffffffffffffffffffffffffffff167fddf252ad1be2c89b69c2b068fc378daa952ba7f163c4a11628f55a4df523b3ef60405160405180910390a4505050565b60606000821415611856576040518060400160405280600181526020017f300000000000000000000000000000000000000000000000000000000000000081525090506119b6565b600082905060005b60008214611888578080611871906138e1565b915050600a82611881919061373a565b915061185e565b60008167ffffffffffffffff8111156118ca577f4e487b7100000000000000000000000000000000000000000000000000000000600052604160045260246000fd5b6040519080825280601f01601f1916602001820160405280156118fc5781602001600182028036833780820191505090505b5090505b600085146119af5760018261191591906137c5565b9150600a85611924919061392a565b603061193091906136e4565b60f81b81838151811061196c577f4e487b7100000000000000000000000000000000000000000000000000000000600052603260045260246000fd5b60200101907effffffffffffffffffffffffffffffffffffffffffffffffffffffffffffff1916908160001a905350600a856119a8919061373a565b9450611900565b8093505050505b919050565b6000816040516020016119ce919061314e565b6040516020818303038152906040528051906020012060001c9050919050565b8173ffffffffffffffffffffffffffffffffffffffff168373ffffffffffffffffffffffffffffffffffffffff161415611a5d576040517f08c379a0000000000000000000000000000000000000000000000000000000008152600401611a5490613470565b60405180910390fd5b80600560008573ffffffffffffffffffffffffffffffffffffffff1673ffffffffffffffffffffffffffffffffffffffff16815260200190815260200160002060008473ffffffffffffffffffffffffffffffffffffffff1673ffffffffffffffffffffffffffffffffffffffff16815260200190815260200160002060006101000a81548160ff0219169083151502179055508173ffffffffffffffffffffffffffffffffffffffff168373ffffffffffffffffffffffffffffffffffffffff167f17307eab39ab6107e8899845ad3d59bd9653f200f220920489ca2b5937696c3183604051611b4e9190613375565b60405180910390a3505050565b611b668484846115b2565b611b7284848484611fb6565b611bb1576040517f08c379a0000000000000000000000000000000000000000000000000000000008152600401611ba8906133f0565b60405180910390fd5b50505050565b600081600001549050919050565b606060405180602001604052806000815250905090565b6060611be7826113a7565b611c26576040517f08c379a0000000000000000000000000000000000000000000000000000000008152600401611c1d906135b0565b60405180910390fd5b6000611c30611bc5565b90506000815111611c505760405180602001604052806000815250611c7b565b80611c5a8461180e565b604051602001611c6b929190613165565b6040516020818303038152906040525b915050919050565b60606000825190506000811415611cac5760405180602001604052806000815250915050611e3c565b60006003600283611cbd91906136e4565b611cc7919061373a565b6004611cd3919061376b565b90506000602082611ce491906136e4565b67ffffffffffffffff811115611d23577f4e487b7100000000000000000000000000000000000000000000000000000000600052604160045260246000fd5b6040519080825280601f01601f191660200182016040528015611d555781602001600182028036833780820191505090505b5090506000604051806060016040528060408152602001613aaa604091399050600181016020830160005b86811015611df95760038101905062ffffff818a015116603f8160121c168401518060081b905060ff603f83600c1c1686015116810190508060081b905060ff603f8360061c1686015116810190508060081b905060ff603f831686015116810190508060e01b90508084526004840193505050611d80565b506003860660018114611e135760028114611e2357611e2e565b613d3d60f01b6002830352611e2e565b603d60f81b60018303525b508484525050819450505050505b919050565b611e5b82826040518060200160405280600081525061214d565b5050565b611e68826113a7565b611ea7576040517f08c379a0000000000000000000000000000000000000000000000000000000008152600401611e9e90613510565b60405180910390fd5b80600660008481526020019081526020016000209080519060200190611ece929190612389565b505050565b6001816000016000828254019250508190555050565b611f83838383604051602401611f01939291906133b2565b6040516020818303038152906040527fe3849f79000000000000000000000000000000000000000000000000000000007bffffffffffffffffffffffffffffffffffffffffffffffffffffffff19166020820180517bffffffffffffffffffffffffffffffffffffffffffffffffffffffff8381831617835250505050611f88565b505050565b60008151905060006a636f6e736f6c652e6c6f679050602083016000808483855afa5050505050565b505050565b6000611fd78473ffffffffffffffffffffffffffffffffffffffff166121a8565b15612140578373ffffffffffffffffffffffffffffffffffffffff1663150b7a02612000611413565b8786866040518563ffffffff1660e01b81526004016120229493929190613300565b602060405180830381600087803b15801561203c57600080fd5b505af192505050801561206d57506040513d601f19601f8201168201806040525081019061206a91906126cd565b60015b6120f0573d806000811461209d576040519150601f19603f3d011682016040523d82523d6000602084013e6120a2565b606091505b506000815114156120e8576040517f08c379a00000000000000000000000000000000000000000000000000000000081526004016120df906133f0565b60405180910390fd5b805181602001fd5b63150b7a0260e01b7bffffffffffffffffffffffffffffffffffffffffffffffffffffffff1916817bffffffffffffffffffffffffffffffffffffffffffffffffffffffff191614915050612145565b600190505b949350505050565b61215783836121bb565b6121646000848484611fb6565b6121a3576040517f08c379a000000000000000000000000000000000000000000000000000000000815260040161219a906133f0565b60405180910390fd5b505050565b600080823b905060008111915050919050565b600073ffffffffffffffffffffffffffffffffffffffff168273ffffffffffffffffffffffffffffffffffffffff16141561222b576040517f08c379a000000000000000000000000000000000000000000000000000000000815260040161222290613530565b60405180910390fd5b612234816113a7565b15612274576040517f08c379a000000000000000000000000000000000000000000000000000000000815260040161226b90613430565b60405180910390fd5b61228060008383611fb1565b6001600360008473ffffffffffffffffffffffffffffffffffffffff1673ffffffffffffffffffffffffffffffffffffffff16815260200190815260200160002060008282546122d091906136e4565b92505081905550816002600083815260200190815260200160002060006101000a81548173ffffffffffffffffffffffffffffffffffffffff021916908373ffffffffffffffffffffffffffffffffffffffff160217905550808273ffffffffffffffffffffffffffffffffffffffff16600073ffffffffffffffffffffffffffffffffffffffff167fddf252ad1be2c89b69c2b068fc378daa952ba7f163c4a11628f55a4df523b3ef60405160405180910390a45050565b828054612395906138af565b90600052602060002090601f0160209004810192826123b757600085556123fe565b82601f106123d057805160ff19168380011785556123fe565b828001600101855582156123fe579182015b828111156123fd5782518255916020019190600101906123e2565b5b50905061240b919061240f565b5090565b5b80821115612428576000816000905550600101612410565b5090565b600061243f61243a8461365c565b61362b565b90508281526020810184848401111561245757600080fd5b61246284828561386d565b509392505050565b60008135905061247981613a28565b92915050565b60008135905061248e81613a3f565b92915050565b6000813590506124a381613a56565b92915050565b6000815190506124b881613a56565b92915050565b600082601f8301126124cf57600080fd5b81356124df84826020860161242c565b91505092915050565b6000813590506124f781613a6d565b92915050565b60006020828403121561250f57600080fd5b600061251d8482850161246a565b91505092915050565b6000806040838503121561253957600080fd5b60006125478582860161246a565b92505060206125588582860161246a565b9150509250929050565b60008060006060848603121561257757600080fd5b60006125858682870161246a565b93505060206125968682870161246a565b92505060406125a7868287016124e8565b9150509250925092565b600080600080608085870312156125c757600080fd5b60006125d58782880161246a565b94505060206125e68782880161246a565b93505060406125f7878288016124e8565b925050606085013567ffffffffffffffff81111561261457600080fd5b612620878288016124be565b91505092959194509250565b6000806040838503121561263f57600080fd5b600061264d8582860161246a565b925050602061265e8582860161247f565b9150509250929050565b6000806040838503121561267b57600080fd5b60006126898582860161246a565b925050602061269a858286016124e8565b9150509250929050565b6000602082840312156126b657600080fd5b60006126c484828501612494565b91505092915050565b6000602082840312156126df57600080fd5b60006126ed848285016124a9565b91505092915050565b60006020828403121561270857600080fd5b6000612716848285016124e8565b91505092915050565b612728816137f9565b82525050565b6127378161380b565b82525050565b6000612748826136a1565b61275281856136b7565b935061276281856020860161387c565b61276b81613a17565b840191505092915050565b6000612781826136ac565b61278b81856136c8565b935061279b81856020860161387c565b6127a481613a17565b840191505092915050565b60006127ba826136ac565b6127c481856136d9565b93506127d481856020860161387c565b80840191505092915050565b600081546127ed816138af565b6127f781866136d9565b94506001821660008114612812576001811461282357612856565b60ff19831686528186019350612856565b61282c8561368c565b60005b8381101561284e5781548189015260018201915060208101905061282f565b838801955050505b50505092915050565b600061286c6032836136c8565b91507f4552433732313a207472616e7366657220746f206e6f6e20455243373231526560008301527f63656976657220696d706c656d656e74657200000000000000000000000000006020830152604082019050919050565b60006128d2601d836136c8565b91507f416c6c203530204e4654732068617665206265656e206d696e7465642e0000006000830152602082019050919050565b6000612912601c836136c8565b91507f4552433732313a20746f6b656e20616c7265616479206d696e746564000000006000830152602082019050919050565b6000612952600a836136d9565b91507f54484952445f574f5244000000000000000000000000000000000000000000006000830152600a82019050919050565b60006129926024836136c8565b91507f4552433732313a207472616e7366657220746f20746865207a65726f2061646460008301527f72657373000000000000000000000000000000000000000000000000000000006020830152604082019050919050565b60006129f86019836136c8565b91507f4552433732313a20617070726f766520746f2063616c6c6572000000000000006000830152602082019050919050565b6000612a386063836136d9565b91507f222c20226465736372697074696f6e223a20224120686967686c79206163636c60008301527f61696d656420636f6c6c656374696f6e206f6620737175617265732e222c202260208301527f696d616765223a2022646174613a696d6167652f7376672b786d6c3b6261736560408301527f36342c00000000000000000000000000000000000000000000000000000000006060830152606382019050919050565b6000612aea600b836136d9565b91507f5345434f4e445f574f52440000000000000000000000000000000000000000006000830152600b82019050919050565b6000612b2a602c836136c8565b91507f4552433732313a206f70657261746f7220717565727920666f72206e6f6e657860008301527f697374656e7420746f6b656e00000000000000000000000000000000000000006020830152604082019050919050565b6000612b90600d836136d9565b91507f3c2f746578743e3c2f7376673e000000000000000000000000000000000000006000830152600d82019050919050565b6000612bd06038836136c8565b91507f4552433732313a20617070726f76652063616c6c6572206973206e6f74206f7760008301527f6e6572206e6f7220617070726f76656420666f7220616c6c00000000000000006020830152604082019050919050565b6000612c36602a836136c8565b91507f4552433732313a2062616c616e636520717565727920666f7220746865207a6560008301527f726f2061646472657373000000000000000000000000000000000000000000006020830152604082019050919050565b6000612c9c6029836136c8565b91507f4552433732313a206f776e657220717565727920666f72206e6f6e657869737460008301527f656e7420746f6b656e00000000000000000000000000000000000000000000006020830152604082019050919050565b6000612d02602e836136c8565b91507f45524337323155524953746f726167653a2055524920736574206f66206e6f6e60008301527f6578697374656e7420746f6b656e0000000000000000000000000000000000006020830152604082019050919050565b6000612d686002836136d9565b91507f227d0000000000000000000000000000000000000000000000000000000000006000830152600282019050919050565b6000612da86020836136c8565b91507f4552433732313a206d696e7420746f20746865207a65726f20616464726573736000830152602082019050919050565b6000612de86031836136c8565b91507f45524337323155524953746f726167653a2055524920717565727920666f722060008301527f6e6f6e6578697374656e7420746f6b656e0000000000000000000000000000006020830152604082019050919050565b6000612e4e602c836136c8565b91507f4552433732313a20617070726f76656420717565727920666f72206e6f6e657860008301527f697374656e7420746f6b656e00000000000000000000000000000000000000006020830152604082019050919050565b6000612eb46029836136c8565b91507f4552433732313a207472616e73666572206f6620746f6b656e2074686174206960008301527f73206e6f74206f776e00000000000000000000000000000000000000000000006020830152604082019050919050565b6000612f1a602f836136c8565b91507f4552433732314d657461646174613a2055524920717565727920666f72206e6f60008301527f6e6578697374656e7420746f6b656e00000000000000000000000000000000006020830152604082019050919050565b6000612f80600a836136d9565b91507f7b226e616d65223a2022000000000000000000000000000000000000000000006000830152600a82019050919050565b6000612fc06021836136c8565b91507f4552433732313a20617070726f76616c20746f2063757272656e74206f776e6560008301527f72000000000000000000000000000000000000000000000000000000000000006020830152604082019050919050565b6000613026600a836136d9565b91507f46495253545f574f5244000000000000000000000000000000000000000000006000830152600a82019050919050565b6000613066601d836136d9565b91507f646174613a6170706c69636174696f6e2f6a736f6e3b6261736536342c0000006000830152601d82019050919050565b60006130a66031836136c8565b91507f4552433732313a207472616e736665722063616c6c6572206973206e6f74206f60008301527f776e6572206e6f7220617070726f7665640000000000000000000000000000006020830152604082019050919050565b600061310c6005836136d9565b91507f434f4c4f520000000000000000000000000000000000000000000000000000006000830152600582019050919050565b61314881613863565b82525050565b600061315a82846127af565b915081905092915050565b600061317182856127af565b915061317d82846127af565b91508190509392505050565b600061319582866127af565b91506131a182856127af565b91506131ad82846127af565b9150819050949350505050565b60006131c682866127e0565b91506131d282856127af565b91506131de82846127af565b91506131e982612b83565b9150819050949350505050565b600061320182612945565b915061320d82846127af565b915081905092915050565b600061322382612add565b915061322f82846127af565b915081905092915050565b600061324582612f73565b915061325182856127af565b915061325c82612a2b565b915061326882846127af565b915061327382612d5b565b91508190509392505050565b600061328a82613019565b915061329682846127af565b915081905092915050565b60006132ac82613059565b91506132b882846127af565b915081905092915050565b60006132ce826130ff565b91506132da82846127af565b915081905092915050565b60006020820190506132fa600083018461271f565b92915050565b6000608082019050613315600083018761271f565b613322602083018661271f565b61332f604083018561313f565b8181036060830152613341818461273d565b905095945050505050565b6000604082019050613361600083018561271f565b61336e602083018461313f565b9392505050565b600060208201905061338a600083018461272e565b92915050565b600060208201905081810360008301526133aa8184612776565b905092915050565b600060608201905081810360008301526133cc8186612776565b90506133db602083018561313f565b6133e8604083018461271f565b949350505050565b600060208201905081810360008301526134098161285f565b9050919050565b60006020820190508181036000830152613429816128c5565b9050919050565b6000602082019050818103600083015261344981612905565b9050919050565b6000602082019050818103600083015261346981612985565b9050919050565b60006020820190508181036000830152613489816129eb565b9050919050565b600060208201905081810360008301526134a981612b1d565b9050919050565b600060208201905081810360008301526134c981612bc3565b9050919050565b600060208201905081810360008301526134e981612c29565b9050919050565b6000602082019050818103600083015261350981612c8f565b9050919050565b6000602082019050818103600083015261352981612cf5565b9050919050565b6000602082019050818103600083015261354981612d9b565b9050919050565b6000602082019050818103600083015261356981612ddb565b9050919050565b6000602082019050818103600083015261358981612e41565b9050919050565b600060208201905081810360008301526135a981612ea7565b9050919050565b600060208201905081810360008301526135c981612f0d565b9050919050565b600060208201905081810360008301526135e981612fb3565b9050919050565b6000602082019050818103600083015261360981613099565b9050919050565b6000602082019050613625600083018461313f565b92915050565b6000604051905081810181811067ffffffffffffffff82111715613652576136516139e8565b5b8060405250919050565b600067ffffffffffffffff821115613677576136766139e8565b5b601f19601f8301169050602081019050919050565b60008190508160005260206000209050919050565b600081519050919050565b600081519050919050565b600082825260208201905092915050565b600082825260208201905092915050565b600081905092915050565b60006136ef82613863565b91506136fa83613863565b9250827fffffffffffffffffffffffffffffffffffffffffffffffffffffffffffffffff0382111561372f5761372e61395b565b5b828201905092915050565b600061374582613863565b915061375083613863565b9250826137605761375f61398a565b5b828204905092915050565b600061377682613863565b915061378183613863565b9250817fffffffffffffffffffffffffffffffffffffffffffffffffffffffffffffffff04831182151516156137ba576137b961395b565b5b828202905092915050565b60006137d082613863565b91506137db83613863565b9250828210156137ee576137ed61395b565b5b828203905092915050565b600061380482613843565b9050919050565b60008115159050919050565b60007fffffffff0000000000000000000000000000000000000000000000000000000082169050919050565b600073ffffffffffffffffffffffffffffffffffffffff82169050919050565b6000819050919050565b82818337600083830152505050565b60005b8381101561389a57808201518184015260208101905061387f565b838111156138a9576000848401525b50505050565b600060028204905060018216806138c757607f821691505b602082108114156138db576138da6139b9565b5b50919050565b60006138ec82613863565b91507fffffffffffffffffffffffffffffffffffffffffffffffffffffffffffffffff82141561391f5761391e61395b565b5b600182019050919050565b600061393582613863565b915061394083613863565b9250826139505761394f61398a565b5b828206905092915050565b7f4e487b7100000000000000000000000000000000000000000000000000000000600052601160045260246000fd5b7f4e487b7100000000000000000000000000000000000000000000000000000000600052601260045260246000fd5b7f4e487b7100000000000000000000000000000000000000000000000000000000600052602260045260246000fd5b7f4e487b7100000000000000000000000000000000000000000000000000000000600052604160045260246000fd5b6000601f19601f8301169050919050565b613a31816137f9565b8114613a3c57600080fd5b50565b613a488161380b565b8114613a5357600080fd5b50565b613a5f81613817565b8114613a6a57600080fd5b50565b613a7681613863565b8114613a8157600080fd5b5056fe416e204e465420772f20494420257320686173206265656e206d696e74656420746f2025734142434445464748494a4b4c4d4e4f505152535455565758595a6162636465666768696a6b6c6d6e6f707172737475767778797a303132333435363738392b2fa2646970667358221220458d1c78c7e127b5fabe6b6ce62c2cf8fcf747f09f649b583baddee6992574f764736f6c634300080000333c73766720786d6c6e733d27687474703a2f2f7777772e77332e6f72672f323030302f73766727207072657365727665417370656374526174696f3d27784d696e594d696e206d656574272076696577426f783d273020302033353020333530273e3c7374796c653e2e62617365207b2066696c6c3a2077686974653b20666f6e742d66616d696c793a2073657269663b20666f6e742d73697a653a20323470783b207d3c2f7374796c653e3c726563742077696474683d273130302527206865696768743d2731303025272066696c6c3d27626c61636b27202f3e3c7465787420783d273530252720793d273530252720636c6173733d27626173652720646f6d696e616e742d626173656c696e653d276d6964646c652720746578742d616e63686f723d276d6964646c65273e",
  "linkReferences": {},
  "deployedLinkReferences": {}
}